:100000000C942A000C943F000C943F000C943F0089
:100010000C943F000C943F000C943F000C943F0064
:100020000C943F000C943F000C943F000C943F0054
:100030000C943F000C943F000C943F000C943F0044
:100040000C943F000C943F000C943F000C943F0034
:100050000C943F0011241FBECFE5D8E0DEBFCDBF1A
:1000600010E0A0E6B0E0E8EDF2E002C005900D92ED
:10007000AC3AB107D9F70E9401010C946A010C94C3
:10008000000041111CC0813059F028F0823069F025
:10009000833081F008958AB3609568236ABB089520
:1000A00087B36095682367BB089584B36095682320
:1000B00064BB089581B36095682361BB08954F3F89
:1000C000B9F4813051F028F0823059F0833069F072
:1000D00008958AB3682B6ABB089587B3682B67BB02
:1000E000089584B3682B64BB089581B3682B61BB0A
:1000F0000895813071F028F0823099F08330C9F092
:1001000008958BB3962F909589234623482B4BBB9C
:10011000089588B3962F909589234623482B48BB92
:10012000089585B3962F909589234623482B45BB88
:10013000089582B3962F909589234623482B42BB7E
:100140000895813061F028F0823079F0833099F0A1
:1001500008954FEF60E181E00E94410008954FEF64
:1001600060E281E00E94410008954FEF60E481E089
:100170000E94410008954FEF60E881E00E94410035
:100180000895813061F028F0823079F0833099F061
:1001900008954FEF60E181E00E94790008954FEFEC
:1001A00060E281E00E94790008954FEF60E481E011
:1001B0000E94790008954FEF60E881E00E94790085
:1001C0000895813061F028F0823079F0833099F021
:1001D000089540E060E181E00E947900089540E0E8
:1001E00060E281E00E947900089540E060E481E0EF
:1001F0000E947900089540E060E881E00E94790063
:10020000089580E00E94A10080E00E94E1000F2E8E
:10021000F7E6AF2EF02DC12CE12C00E020E046E007
:1002200068E180E00E942E0180E690E00E945B0180
:100230008EE690E00E945B010E945701E7EAF1E63A
:100240003197F1F700C000008F3621F480E00E9462
:10025000C100F2CF80E00E94E100EECFAF92CF92DA
:10026000EF920F9310BC1AB89AB1692B6AB99AB180
:10027000C92ACAB8A9B810BC90B5906890BD90B50D
:10028000892B80BD80B5082B00BD80B5482B40BDB3
:1002900080B5E82AE0BC80B5282B20BD0F91EF90F7
:1002A000CF90AF9008955D9BFECF8CB908955F9B72
:1002B000FECF8CB10895CF93DF93EC018881882322
:1002C00031F021960E94530189918111FBCFDF917A
:0802D000CF910895F894FFCFCF
:1002D8002057656C636F6D652E2E2E200A00205006
:1002E8006C6561736520456E746572206F20666F5A
:1002F80072204C6564206F6E200A20616E64206F46
:1003080074686572206368617261637465722066DF
:0C0318006F72206C6564206F66660A003E
:00000001FF
